:100000000C94B2030C94EA030C94EA030C94EA03F4
:100010000C94EA030C94EA030C94EA030C94EA03AC
:100020000C94EA030C94EA030C9485190C94C718F9
:100030000C94521C0C94EA030C94EA030C94EA030B
:100040000C94EA030C94EA030C94EA030C94EA037C
:100050000C94EA030C94B31A0C94EA030C94EA038C
:100060000C94EA030C94EA030C94EA030C94EA035C
:100070000C94EA030C94EA030C94EA030C94EA034C
:100080000C94EA030C94EA030C94EA030C94EA033C
:100090000C94EA030C94EA030C94EA030C94EA032C
:1000A0000C94EA030C94EA030C94EA037E0B7E0B97
:1000B000AE0BAE0B530CA00DA00DA00D710CE40CFB
:1000C000F70CF70C6E1285128B12A014A014C41238
:1000D000D612E9122F13341360138413B713BA1313
:1000E000C613D213E9132014321457147914D316FB
:1000F000FA16AF18FA16AF1846176917AF186A182C
:100100007A18FD377A585A000004E6D6B446020041
:10011000210116000000742FE5A3E0066401BE5D16
:10012000003D8889C65436C3174FE4E6BEA28C0949
:100130004B43C7F65D406E439ACC8525889B6E2362
:10014000C43172EAE1BD9442675A1E588B3161CACC
:100150006B3EF5A00CAD9CD83E426E3E04FC36B022
:100160005678A0F61B145CF4598613AF5A680E2912
:100170009379567FCC7F1220E3F0D38C98704E9405
:100180002EB560CBAEBF5C3E29CDCA4986BEFB0B07
:10019000C3B8CDE1D1DC71AA92E9280436D143C5B8
:1001A000D465E32FD1662B302222D5FF7FA21C9F7E
:1001B00091F3255F13DC1A49636FC42FEA4391AEB4
:1001C0005B2ABA343D9F0979C441C9E53EF29D9648
:1001D000DAC4E309DDAC6020C741869292EBC79593
:1001E0007E8236D4DBB0D702C2105E6FCC0DCFAEAC
:1001F000D4AE0B36652FB90BF7200A95A3634728B9
:100200008DF2AE9848907576FD1BF0D3624E8CB09F
:1002100087E19F89D74C3B9C1107271D36FA96F042
:10022000F88BF682761D983C7A7BAE10AC4484CF76
:10023000505A4C96FA56ABBB6C51532E54C3F21223
:1002400050695C26EBFEFE9512EAEAB17D28BD0DF1
:1002500013C767090E5741CB013CB9430E8DD9CD69
:1002600028CBDEB41DA753E122C071409051BFCB13
:10027000028FDDE651703D5D64BAE1D7C5749AC264
:100280005A839F3CFF1EFFA6A2BD06E87771B9D135
:100290003E17EAC2924FE05522944D05EED6E6088D
:1002A000EF15BEE9D2D5C442EBAC7CE95EA295E085
:1002B000580A4C039C149555EEFD7D0B4BE7D46F0B
:1002C0008F066D966A19D00876172F343736FDA041
:1002D0009B8AF87B015501681B810F4397D500006D
:1002E0000000A63F0B1D33FD29B50001DA03E50C24
:1002F00000002AD9EBDFB1C467FB02000000000454
:10030000595A05010980A101850319012AB7001571
:100310000126B700950175108100C0050C0901A1E7
:1003200001850419012AA002150126A00295017574
:10033000108100C005010906A1018506050719E025
:1003400029E71500250195087501810205071900A7
:1003500029EF1500250195F07501810205081901A5
:100360002905950575019102950175039101C00656
:1003700060FF0961A1010962150026FF0095207543
:100380000881020963150026FF0095207508910277
:10039000C005010906A101050719E029E715002597
:1003A00001950875018102950175088101050719FC
:1003B0000029FF150026FF00950675088100050835
:1003C00019012905950575019102950175039101A2
:1003D000C009025B00030100A0FA09040000010348
:1003E00001010009211101000122400007058103DC
:1003F00008000109040100020300000009211101A5
:1004000000012222000705820320000107050303E3
:10041000200001090402000103000000092111016C
:100420000001226D00070584032000011201000273
:1004300000000008ED0E11230000010203011C035F
:100440007600690061006C003A00660036003400F6
:1004500063003200620033006300000018035400A0
:1004600065006500740068004C006500730073004F
:10047000340030000000080371006D006B000000C4
:10048000040309042B0014001A00080015001700CB
:10049000AE001C0018000C00120013002F003500E5
:1004A00004001600070009000A00AB000B000D0055
:1004B0000E000F0033003400E1001D001B00060099
:1004C0001900050000001100100036003700380048
:1004D000E500E3000151E200E00028412C000000AB
:1004E0002A002842E400E2000251E7000100010076
:1004F0000100010001000100A8000100010001004D
:1005000001000100010001001E001F002000210069
:100510002200AC0023002400250026002700010053
:1005200001000100010001000100010000000100C4
:1005300001000100010001000100010001000100B3
:1005400001000100010000000100010001000100A4
:100550000100010001000100010001000100010093
:1005600001004C004E0052004B0001000100010050
:100570000100010001000100010001004A005000DB
:1005800051004F00010001000100010001000100C5
:100590000100010000000100010001000100010054
:1005A0000100010001000100010001000100000044
:1005B00001000100010001000100005C01000100D8
:1005C0000100010001000100010001000100010023
:1005D0000100010001000100010001000100010013
:1005E0000100010001000100010001000100010003
:1005F00001000100010001000100010000000100F4
:1006000001000100010001000100010001000100E2
:1006100001000100010000000100010001000100D3
:1006200001000100010001003602EC1B1F1C00004C
:10063000020002003202EC1B1F1C0000030001003C
:100640003702EC1B1F1C0000040002001C02EC1B04
:100650001F1C651B050001003802EC1B1F1C00005D
:10066000060002001E02EC1B1F1C00000700020017
:100670003402EC1B1F1C0000080001003902EC1BB7
:100680001F1C0000120002003A02EC1B1F1C00009D
:10069000130002003C02EC1B1F1C000014000100B0
:1006A0003E02EC1B1F1C0000150000000000E81AB1
:1006B0006E1B0000000000000000000000000000B1
:1006C000000000000000000000000000000000002A
:1006D00000000000000000007E0F00D4FFFFFFC7F5
:1006E0000000007800000000000000002A2B280015
:1006F00000000000000000000000000000000029D1
:10070000000000002C1E3420212224342627252E10
:10071000362D3738271E1F20212223242526333348
:10072000362E37381F0405060708090A0B0C0D0E74
:100730000F101112131415161718191A1B1C1D2F40
:100740003130232D350405060708090A0B0C0D0E60
:100750000F101112131415161718191A1B1C1D2F20
:100760003130354C11241FBECFEFDAE0DEBFCDBFF4
:1007700004B603FE18C08091F4049091F504A09192
:10078000F604B091F7048730904BA740B04B59F472
:100790001092F4041092F5041092F6041092F704EB
:1007A000E0E0F8E3099511E0A0E0B1E0E2E2F7E66D
:1007B00002C005900D92AC36B107D9F724E0ACE643
:1007C000B1E001C01D92A43FB207E1F70E94F50D10
:1007D0000C948F330C940000ACE0B0E0E2EFF3E057
:1007E0000C943B337C01DC0113964D915C91149782
:1007F00011966C9111978C910E94A51E81110C94F9
:10080000F10D61E0C7010E940C2C8C01F70182817F
:100810008823E1F080910303909104030097B1F0E5
:100820000817190799F0FEE08F9FC0011124FC0101
:10083000E455FC4F20812460208389559C4FDC01C6
:100840000D931C930E942B1D10920203F70132801E
:10085000332009F486C6C80182519F45409708F0AD
:10086000B3C08FEF93E00E94E432811167C66EEE51
:10087000D62ED00E0BED12E0DD2071F00115F4E064
:100880001F0709F45BC6C8010E94E432811101C050
:10089000DA940F5F1F4FF0CF19821A821B821C82DD
:1008A000AA24AA9468012FEFC21AD20AC8010E9492
:1008B000E43289831A82882309F440C6813009F022
:1008C0007EC0480132E0830E911CC6010E94E432D2
:1008D000B82E8A83882309F431C68FEF8B0D8330BD
:1008E00060F4680143E0C40ED11CC4010E94E432EC
:1008F0008B83811164C08601D5CF8BEF8B0D833044
:1009000078F5380153E0650E711CC4010E94E43291
:100910008B83811102C06301EECF680184E0C80EB1
:10092000D11CC3010E94E4328C83882321F32B81E4
:100930003C8121309FEF390718F0922F80E001C0F1
:10094000C901A6E0BA1631F0B7E0BB1631F00E943B
:10095000B430D1CF0E948E30CECF0E941430CBCF96
:10096000E4E0BE1611F06401C6CFC4010E94E43277
:10097000B82E6801F4E0CF0ED11CC80103960E9486
:10098000E432BB2009F4DAC5882309F4D7C5282F3F
:1009900030E021503109A29EA001A39E500D1124E8
:1009A0008B2D90E00197840F951F019708F4A3CF3A
:1009B000AFE9BFE01197F1F700C00000F6CFCE011C
:1009C00001960E94CF3197CF0031EFE51E0731F03D
:1009D0000131FFE51F07B1F482E001C081E00E9410
:1009E000DA220E94C331AAC5680127E5D21A3FEF77
:1009F000C316D10409F008F4C3C5D70112963C9080
:100A00003320D1F00F35BDE51B0761F00036EDE571
:100A10001E0761F00E35FDE51F0771F4809100019E
:100A2000811104C081E08093000188C5109200010B
:100A300080E00E94161E82C580910001811108C0CD
:100A4000C80197558F3F910509F008F47AC1CAC1D2
:100A5000480120EE821A9108209090038091710144
:100A6000282A8091FB01282A38E08316910480F41B
:100A700098012770332781E090E001C0880F2A9504
:100A8000EAF7332011F0282A18C08095282215C0D3
:100A9000332009F416C110936F0100936E010E9478
:100AA0003A1C6093F4027093F5028093F6029093DF
:100AB000F7021092FC021092FB02D7018D919C91DB
:100AC0000E945F2221E030E0F90102C0EE0FFF1F1B
:100AD0008A95E2F7FC87EB872091FD023091FE02B8
:100AE00038872F8340916E0150916F015A87498753
:100AF0001D82432C512C5D81E52FF0E0EE0FFF1F8E
:100B0000E859FB4FC080D180C114D10409F4F0C072
:100B1000211005C0D60112968C918111CEC0F6012C
:100B2000838190E02B853C8582239323892B09F4D4
:100B3000C4C08085982F977009F487E038E0831649
:100B4000910440F4332019F081FD09C0B6C082FD44
:100B500006C0B3C0332009F4B0C080FFAEC0D601D8
:100B6000AD90BC900A151B0519F4332009F4A5C0FB
:100B7000EF81F885CE16DF0609F49FC0D6011D96D9
:100B8000ED91FC911E97309721F08081882309F424
:100B900094C0622DC6010E94851E882309F48DC071
:100BA0000A151B0511F4320102C0612C712CB62DFF
:100BB000B170BE8381E0A114B10441F0B11106C04F
:100BC000E985FA85AE16BF0609F080E080FF75C0A2
:100BD00080E00E94161ED092FE02C092FD0281E0CB
:100BE0008093FA02D60115968C918093F802BE810B
:100BF000B11113C0AB2889F0F601808191819C016D
:100C000024503109213A310530F4682F85ED91E007
:100C10000E947B1C02C00E943B23D6011696AD9019
:100C2000BC901797C5019A9581159F4110F4E0EE8D
:100C3000BE2255245394C5010197803B9D4508F081
:100C4000512CD6011996ED91FC911A97309739F0F5
:100C50001B966D917C911C9781E009955822552037
:100C600029F1F601868197810E94702E8093F90206
:100C7000C501F8E08F16910418F40E94C51D16C036
:100C80000497813A910530F46A2D85ED91E00E9438
:100C9000A31C0EC00E94EA2A8FE39CE90197F1F79A
:100CA00000C000008A2D0E94942302C00E94EA2AFC
:100CB00091E0692660FE73C1C3CEAD81AF5FAD83A5
:100CC0001ACF80916E0190916F010817190781F476
:100CD00010926F0110926E011092F4021092F502C0
:100CE0001092F6021092F7021092FC021092FB0290
:100CF0008091FD029091FE02009709F4A1CEB8E028
:100D00008B16910438F4622D0E94851E811198CEB5
:100D100081E014C0FC01208131810217130729F4FE
:100D2000311006C01092FA0208C0332009F488CEB0
:100D3000DC0118968C9185FD83CE80E00E94161E02
:100D40007FCE5801BB24BEE00B9FF00111249F0110
:100D500029553C4F6901D70112969C911297E45591
:100D6000FC4F808190FB80F9808312969C9199239F
:100D7000A1F10E94461C9093880180938701F6019F
:100D800082818F5F8283909102038091FB01892B86
:100D900083838091900384830680F781E02D3097D0
:100DA00039F0D6011C966D917C911D97C60109956D
:100DB0008EE08A9DF0018B9DF00D1124E455FC4FCF
:100DC000808181FF03C090E080E002C0902F812FDE
:100DD000909303038093040305C081FF03C0C901FE
:100DE0000E94111D8091370280FF9BC00E94461C0B
:100DF0006C01F70182818823D9F18091100182FF73
:100E000008C029E831E040E0B60180E090E00E94AF
:100E10002A200B31FCE51F0779F00C312CE5120775
:100E200089F00A313CE51307A1F480911001982F55
:100E3000909590FB80F909C08091100181608093AA
:100E4000100107C0809110018E7F809310010E94D5
:100E5000EB1FC8019056811540E2940720F0905E88
:100E60008115904180F5109243021092420259C0C0
:100E7000013E110521F4809110018F7E06C0053ED0
:100E8000110531F4809110018F7D809310011BC0FA
:100E9000C80190568115A0E29A0720F0905E811556
:100EA000904188F48091100182FF3BC0809139020B
:100EB00081FD37C029E831E040E0B60180E090E0F4
:100EC0000E942A202EC08091100180FF2AC0F701C5
:100ED00082810832110538F40E311105B8F404305E
:100EE000110578F41CC00933110538F40D321105D1
:100EF00090F40B32110579F012C00436110559F047
:100F00000EC09091370294FD0AC01EC29091370224
:100F100093FD05C019C29091370292FF15C281114D
:100F200041C0033FFCE51F0709F469C008F06DC02C
:100F3000083D3CE5130709F45CC0093D4CE5140786
:100F400009F47FC0073D5CE5150709F44CC0F701C3
:100F5000228121117FC00631BCE51B0709F0CFC2F9
:100F60008091FB01982F9A7A3091360230FDA0C211
:100F700031FDA4C232FDA8C233FDACC2222309F464
:100F8000B2C281E0911101C080E080937001992389
:100F900009F4A7C265E385ED91E00E94A31C0E94BD
:100FA000EA2ACCC21092430210924202033FFCE5AF
:100FB0001F0729F170F4083D3CE51307D1F0093D06
:100FC0004CE51407F1F1073D5CE5150709F042C057
:100FD0000AC0053F8CE5180719F1E0F0063FACE5C3
:100FE0001A0749F137C006E221EE41EE67ED7CE5D4
:100FF0002DC007E225EE45EE68ED7CE527C006E250
:1010000021EE40EE63EF7CE521C0053F8CE518073B
:1010100039F060F407E225EE44EE64EF7CE516C09B
:1010200006E221EE42EE65EF7CE510C0063FACE53E
:101030001A0709F08CCF07E225EE46EE66EF7CE555
:1010400005C008E221E045EE69ED7CE5C7010E949C
:10105000531D74C2109201030330FDE51F0758F4BD
:101060000A3F2CE51207C0F4C80182509C45449702
:1010700008F01CC211C0053A3DE5130769F030F4D1
:1010800001365DE5150709F011C206C0C8018D5A89
:101090009D45039708F00AC20E94D1299093A301AD
:1010A0008093A20102318CE5180709F40CC108F005
:1010B0004DC00930ACE51A0709F4D9C008F5053070
:1010C000ECE51E0709F4C0C080F403302CE51207DC
:1010D00009F4B1C008F0B5C002304CE5140709F0BE
:1010E0002AC18091A2018160A9C007305CE5150783
:1010F00009F4B5C008F0B7C08091A20180619EC01C
:101100000D309CE5190709F4C8C058F40B30BCE554
:101110001B0709F4B6C008F0BCC08091A20188602A
:10112000ACC00F30FCE51F0709F4C5C008F4B8C017
:1011300000313CE5130709F4C2C001314CE5140746
:1011400009F0F9C08091A2018F7B78C00F3F5CE568
:10115000150709F4C3C098F50A3F9CE5190709F47F
:1011600077C0C0F40431BCE51B0709F4C6C008F41D
:10117000B0C00531FCE51F0709F0DDC08091A20178
:1011800082FB222720F991E0922790FB82F990FBC5
:1011900083F954C00C3F2CE5120709F485C008F40C
:1011A0005AC00D3F4CE5140709F481C00E3F5CE5C1
:1011B000150709F0C0C08091A301826060C00136AC
:1011C0008DE5180709F4ABC070F40130ADE51A07DE
:1011D00009F49FC008F487C00230EDE51E0709F04E
:1011E000AAC060E097C00D3AFDE51F0701F160F469
:1011F000053A3DE5130709F09EC08091A201982FA2
:10120000909590FB80F91AC00E3A4DE51407E9F16C
:101210000F3A5DE5150709F08EC08091A30183FBAD
:10122000222720F991E0922790FB83F982C08091D8
:10123000A30188607EC08091A20182608093A20198
:101240007AC08091A20119C08091A2018860F6CF76
:101250008091A30114C08091A30182606AC0809133
:10126000A2018062EBCF8091A2018064E7CF0E944F
:1012700006238091A2018068E1CF8460DFCF816086
:1012800058C08091A2018E7FD9CF8091A301877F22
:1012900050C08091A2018D7FD1CF8091A2011CC04E
:1012A0008091A201877FCACF8091A3011AC080914B
:1012B000A3018D7F3EC08091A2018F7EBFCF809120
:1012C000A2018F7DBBCF0E9406238091A2018F7760
:1012D000B5CF8091A201877F8B7FB0CF8091A30192
:1012E0008D7F8E7F26C08091A301982F909591705D
:1012F0008E7F892B90FB81F91CC00E940623809170
:10130000A20187FB222720F991E0922790FB87F921
:1013100095CF61E08EE090E00E94F2320CC08091A7
:10132000A20184FB222720F991E0922790FB84F907
:1013300085CF8093A3018091A2019091A3010E9487
:10134000C3290E940623FAC0882309F4A8C09091FB
:1013500090038091FB01892B8D7F79F110924302DC
:10136000109242028091370281FD27C0F80143E0CC
:10137000F695E7954A95E1F7EE71FF27E450FE4FA9
:1013800098012F70332781E090E002C0880F991FE9
:101390002A95E2F7809590952081318182239323CD
:1013A00091838083A70160E0C8010E940A20809198
:1013B00090038D7F0E94582A6EC088E0F701A9E84B
:1013C000B1E001900D928A95E1F710928B01109295
:1013D0008D0110928C018091420290914302081776
:1013E0001907E1F58091370285FF38C0909110010F
:1013F00091FF02C086FF32C080914002909141026D
:101400005601A81AB90AB701C8010E94DE2FA81612
:10141000B90620F58091FB0181FF08C08091100181
:1014200080618093100182E00E94732A8091FB0109
:1014300085FF08C08091100180628093100180E2D6
:101440000E94732A6091100166956170A7018091D6
:101450004202909143020E940A2070C08091900342
:101460009091FB01982B969591702091100190FB23
:1014700021F9209310018D7F0E94582A1093430276
:1014800000934202D0924102C0924002809110012A
:1014900084608093100182E00E94872A4FC09701E8
:1014A00040E0B601C8010E942A2048C021E053CD87
:1014B000482F447409F45CCD90E05ACD482F417117
:1014C00009F458CD90E056CD482F487809F454CD12
:1014D00090E052CD827209F451CD222321F0109276
:1014E000700169E258CD80917001882311F065E3A5
:1014F00001C069E285ED91E00E947B1C50CDD701CF
:1015000012968C91882309F4A5C00A358DE5180739
:1015100009F49BC008F085C00115ACE51A0709F075
:1015200079C00E9406233FEF44E35CE03150404025
:101530005040E1F700C000000E948F1A80916D03B7
:10154000877009F44EC3D70112968C91882309F451
:1015500048C38091A30182FF44C382E00E94872A8E
:1015600040C30031FFE51F0721F481E00E94CD2236
:1015700038CA01312FE5120709F036CA82E0F6CFEA
:101580006DE973E08C2D0E940122892B09F035CA88
:101590008EE08C9DF0018D9DF00D1124E955FC4FDE
:1015A00082818130E1F480919D0390919E03892B8B
:1015B00009F423CA80919F039091A003892B09F419
:1015C0001CCA8091A1039091A203892B09F015CA2E
:1015D0008091A3039091A403892B59F00ECA823005
:1015E00009F00BCA8091A1039091A203892B09F401
:1015F00004CA2EE02C9DC0012D9D900D1124FC01EC
:10160000E455FC4F20812E7F208389559C4F0E94FA
:101610002B1DF3C90E3DBCE51B07E1F40E94E22936
:1016200009C00C35EDE51E0741F088F0073A2DE5BD
:10163000120781F40E945A2E81CF8091A30182FB70
:10164000882780F991E0892703C081E001C080E00C
:101650000E94A42AF701868197810097B9F4F701C7
:10166000828100811181882349F0C8010E942322D0
:10167000D82E682FC8010E94932204C0C8010E947E
:101680005F22D82EB8018D2D0E9453210E943C2844
:10169000182F092FD7011296BC9012971596CC904F
:1016A000C2943FE0C32280916D038770B9F0BB20E4
:1016B000A9F0892F807F803421F080E2810F88306B
:1016C00068F08091A30182FF09C082E00E94872A0E
:1016D00080916D038770AA24A3948111A12C902E70
:1016E00092942FE09222892D90E08C30910508F0A1
:1016F00027C2FC01EA5AFF4F0C942E33902F9F70A3
:10170000802F807FD92E19F0D29490EFD922BB2060
:10171000A9F0DD2009F4F4C180E2810F883010F0D7
:10172000111104C08D2D0E947A2A05C080910203F8
:10173000D82AD09202030E94EA2AE2C1812F0E9495
:101740003B23DD2009F4FCC180E2810F883068F181
:10175000112359F18D2D0E946C2A2AC0902F9F7061
:10176000802F807FD92E803219F0D29480EFD8223A
:10177000112321F0113009F468C073C08091A301D6
:1017800082FD19C0BB2059F0DD2029F08D2D0E946B
:101790007A2A0E94EA2A80E00E949423D1C180E044
:1017A0000E943B23DD2009F4CBC18D2D0E94732ABA
:1017B0000E94EA2AC5C1BB2011F1CC20E1F0B1E0C2
:1017C000CB1206C0809190038D290E94582AB8C17F
:1017D00080913802823078F0C8120DC00E944D2AE4
:1017E000909171018D2D892B8913809371018D2D1D
:1017F0000E943423A5C1809190038D29F9CFCC207C
:10180000F1F080913802E1E0CE1214C0823008F489
:1018100097C18091FB018D2109F492C10E944D2A4C
:10182000909171018D2D80958923891751F08093B6
:10183000710107C0823018F0C81609F481C10E94F6
:101840004D2A8D2D0E942D237BC180913E02BB200D
:1018500021F08C1508F474C1CACFC81608F070C105
:10186000F0CFBB20E9F0CC2011F220E0D7014C9161
:1018700011965C91119712966C91129713967C9128
:10188000139714968C910E94E92B8091390281FD67
:1018900037C1F701858180FF33C18F708583A7CF62
:1018A000C11037C1CECF802F86958695837019F0F1
:1018B000813061F045C1BB2021F0812F902F9370C2
:1018C00002C080E090E00E94EE1C40C1BB2021F0ED
:1018D000812F902F937002C080E090E00E94D81C6E
:1018E00035C1802F8370A1F5B1102EC1412F4295D3
:1018F00046954770440F440F212F2F7030E0C901E7
:10190000042E01C0880F0A94EAF714FF08C02FE0E4
:1019100030E001C0220F4A95EAF7209501C020E08F
:10192000302F369536953370323069F040F440915F
:101930009103313019F0822B842302C0842B822B37
:101940000E94E62201C1282B809191038227F8CFC3
:10195000BB2019F0802F817001C08695882309F47F
:10196000F3C0412F429546954770440F440F212FF5
:101970002F7030E0C901042E01C0880F0A94EAF7E5
:1019800014FF08C02FE030E001C0220F4A95EAF7AB
:10199000209501C020E0302F3695369533703230D7
:1019A00051F070F44091F304313019F0822B84230C
:1019B00008C0842B05C0282B8091F304822701C026
:1019C000822B0E94C822C0C0F02FFF70DF2EBB20E8
:1019D00039F08F2F0E94DA22812F0E943423B4C065
:1019E000812F0E942D238D2D0E94CD22ADC0123F4C
:1019F00011F128F4103F41F0113FA9F17DC0133FD0
:101A000001F1143F61F178C080913E02BB2021F0CA
:101A1000C81608F095C003C08C1508F491C0202F9B
:101A20002F7181E090E001C0880F2A95EAF790912C
:101A3000F30489270FC0802F8F71BB2009F464C085
:101A40007BC0BB2051F081E0902F9F7101C0880FB7
:101A50009A95EAF70E94C82273C080E0FBCF80917C
:101A6000A30182FD06C0802F8F71BB2009F464C0E2
:101A70004BC080913802823040F1BB20C1F0909180
:101A80006D039770943039F40E94802A802F8F71F3
:101A90000E94CD2254C0C81608F051C0202F2F71CB
:101AA000D22E822F0E94DA2263E08D2D07C0C81645
:101AB00040F00E94802A64E0802F8F710E94B92A32
:101AC0003EC081E00E94872A3AC0BB2059F0302FE7
:101AD0003F71D32E832F0E94DA2263E08D2D0E9466
:101AE000B92A2EC081E00E94872A41E04C1540F5BA
:101AF00082E00E94872A24C0BB2049F0CC2011F04C
:101B0000812F4ACE802F8F710E94DA2219C0CC20FB
:101B100089F0193329F480913C0290913D0204C070
:101B200080913A0290913B020E941F20812F0E94D7
:101B30003B2306C0802F8F710E94CD2201C0A12CB3
:101B400088EF890D843010F40E94041D812F902F9E
:101B50000E94EB22811105C0109273011092720154
:101B600025C0BB2019F0C110F7CF20C0C110F4CFA1
:101B700020E0D7014C9111965C91119712966C91CF
:101B8000129713967C91139714968C910E94E92BCF
:101B90008091390283FFE0CF8091720190917301AF
:101BA0000297D1F6812F0E944A24D6CFAA20A9F00D
:101BB00080916D0380FD11C0F70112828595859596
:101BC00085950E94DA22C7010E94EC0380916D0383
:101BD0008595859585950E94CD2260E0C7010E947C
:101BE0000C2C2C96E2E10C945733ACE3B0E0EBEF15
:101BF000FDE00C943B3385B7806885BF85B780686E
:101C000085BF84B7877F84BF0FB6F894A89580916D
:101C10006000886180936000109260000FBE90E0C9
:101C200080E80FB6F89480936100909361000FBE36
:101C30008EE297E290936D0180936C010E94FC2FDD
:101C40000E949A2F0E94262F0E94E8200E940B19C2
:101C50000E942A198091E20084608093E2007894C7
:101C60008091F2048823A1F01091E9001F709091F7
:101C7000EC00892F817090FD80E8182B1092E9000C
:101C80008091E80083FD0E94F0151F701093E90019
:101C900082E084BD93E095BD9AEF97BD80936E007E
:101CA0000E94AA31811102C00E949A310AE111E01A
:101CB0003EE1E32E31E0F32ED8018D918D018F3F6F
:101CC00011F00E947327E016F106B1F70EE111E062
:101CD0002BE2E22E21E0F22EF80181918F018F3F5D
:101CE00011F00E947327E016F106B1F788E0E6E9EB
:101CF000F1E0DF01282F1D922A95E9F7E4E7F1E0F2
:101D0000DF011D928A95E9F780E090E00E94EC32B5
:101D1000883E9E4F21F40E94AA31811102C00E9488
:101D2000E22982E090E00E94E43280937E010E94EA
:101D3000D1299093A3018093A2010E948A27EFEFFB
:101D4000F6E721E0E150F0402040E1F700C000005C
:101D50000E948A278091960180FF08C06FEF7FEF75
:101D600080E090E00E9410330E948F1A83E090E0A0
:101D70000E94E4320E94E62281E091E09093080301
:101D8000809307032E013BE2430E511C8091F20425
:101D9000853009F047C000E112E18091F2048530FE
:101DA00009F03CC08091F204843021F110920B03C1
:101DB00088E190E0A0E40FB6F894A89580936000C5
:101DC0000FBEA093600083B7817F846083BF83B719
:101DD000816083BF7894889583B78E7F83BF0FB669
:101DE000F894A895809160008861809360001092BB
:101DF00060000FBE8091CB01882309F4CECF0E94F2
:101E00008A27E6E9F1E081919191892B09F09DC53E
:101E10002EE931E02E173F07B1F7BFCF0E9406230E
:101E20000E94041D0E948A270FE711E096E9892E7F
:101E300091E0992E27E831E0D401F80141915191C8
:101E40008D919D91842795272E173F0719F0892B97
:101E5000A9F322C0892B01F50E94461C8C018091B8
:101E60007C0190917D010817190709F452C08FEF8A
:101E70008BAB8CAB1DAA0E94461C8160782F9FAB58
:101E80008EAB4BA95CA96DA98FA90E941A2C109347
:101E90007D0100937C013DC0712CD401AD90BD90BB
:101EA0004D01F801C080D180CA24DB24C114D104C3
:101EB00041F1612CEE24E394F12CC6018E219F2187
:101EC000892BB1F068AE79AE21E0C5018E219F214A
:101ED000892B09F420E02AAF0E94461C8160782FEC
:101EE0009CAF8BAF48AD59AD6AAD8CAD0E941A2C3A
:101EF0006394EE0CFF1CFDE06F12DFCFD801AD92B2
:101F0000BC9273940E5F1F4FB4E07B12C6CF0E9449
:101F10003A1C8091FB029091FC02892B09F43EC08F
:101F20004091F0025091F1026091F2027091F3023F
:101F30002FB7F89480919E0190919F01A091A001EC
:101F4000B091A1012FBF841B950BA60BB70B40913D
:101F5000EC025091ED026091EE027091EF02841755
:101F60009507A607B707D0F08091FB029091FC027D
:101F70000E94B72E1092FC021092FB021092F00207
:101F80001092F1021092F2021092F3021092EC02FF
:101F90001092ED021092EE021092EF028091030374
:101FA00090910403892B31F18091870190918801F0
:101FB0000E94D91A8C0188E0F20111928A95E9F702
:101FC000B20180910303909104030E94DE2F8017D9
:101FD000910780F480910303FEE08F9FC0011124DC
:101FE000FC01E455FC4F208122FD04C089559C4F23
:101FF0000E942B1D80911101882341F18091EA02FA
:102000009091EB02009711F10E94D91A209144029D
:102010003091450228173907C8F49091E802809161
:10202000E902981759F00E94521F1092450210922F
:1020300044021092EB021092EA0208C00E94E21ED3
:102040001092EB021092EA020E94321F8091370236
:1020500080FF1EC08091100182FF1AC00E94461CA2
:102060002091400230914102AC01421B530B209160
:102070000E0130910F014217530750F029E831E06B
:1020800041E0BC0180914202909143020E942A20CB
:102090000E94041D90919101891721F08093910174
:1020A0000E943A1C8091F204843009F06FCE83E0E4
:1020B0008093E9008091E80082FF68CE8091E8007B
:1020C00085FF23C00E945C1A81111DC0A0E2EA2E88
:1020D000F12C8E010F5F1F4F09C08091F100D801D4
:1020E0008D938D01B1E0EB1AF10869F08091E80061
:1020F00085FDF3CF8091E8008B778093E8000E9404
:102100005C1A882399F391E001C090E08091E80087
:102110008B778093E800992309F438CE0091F90178
:102120001091FA0189810115110561F08E3F09F0C6
:1021300007C48A81833008F4C5C18550833008F014
:10214000FFC3C0C18B3009F4A6C110F5853009F476
:102150007BC0B0F48230D9F130F4813009F0EEC3A5
:102160001A8289E01DC3833009F461C0843009F00C
:10217000E5C34C816B818A810E94F82E9D8302C445
:10218000873009F4DBC308F0D9C30E947021D8C39B
:10219000803109F4C0C078F48D3009F462C008F4CD
:1021A0005EC0FE0131966F018E3009F45EC08F3043
:1021B00009F484C0C3C3823109F4B3C008F4AEC0CB
:1021C000833109F4DAC08E3F09F47CC1B7C38A8138
:1021D000823009F4D0C3833051F0813009F0AEC3AE
:1021E0000E943A1C9B838C837D836E83A9C380915C
:1021F000F5019091F601892B09F4A2C38091960113
:10220000909197019B838C83809198019091990183
:102210009D838E8380919A0190919B019F838887F3
:1022200080919C0190919D0199878A8789C38A81B9
:10223000823009F083C36B817C818D819E810E94F5
:1022400034330E9476317CC32D813E81322723278F
:1022500032274C816B818A810E94D12E71C380E12B
:102260005EC081E08A8385E29BC20A811B811027C0
:1022700001271027AC80B12CFDE1AF16B10408F0A6
:102280005FC37601C80185529D4F97012C193D0906
:102290002A153B0508F054C3053221E0120730F43B
:1022A0000E94E432D70114968C9302C0F701148285
:1022B0000F5F1F4FFFEFEF1AFF0AE4CF8091F50188
:1022C0009091F601892B09F43BC30A811B811027E9
:1022D00001271027EC80F12C2DE1E216F10408F023
:1022E0002FC35F01C80185529D4F95012C193D09EF
:1022F0002E153F0508F024C3053231E0130728F4FA
:10230000D50114966C910E94F2320F5F1F4FBFEF00
:10231000AB1ABB0AE7CF0E94432112C384E08A8331
:102320000FC30A811B81102701271027CC80D12CD5
:10233000EDE1CE16D10408F003C39E012F5F3F4F9D
:1023400059017901C801879697012A193B092C1573
:102350003D0508F0F5C2003A31E0130730F40E9461
:10236000E432D70114968C9302C0F70114820F5FF8
:102370001F4FFFEFEF1AFF0AE5CF0A811B811027DD
:1023800001271027CC80D12C2DE1C216D10408F0F2
:10239000D7C2380137E2630E711C003A81E018079A
:1023A00008F0CEC280EA91E0801B910B8C159D0550
:1023B00008F4C6C28091F5019091F601DE011196F4
:1023C0005D01892B11F075015DC000FF0FC0C801D0
:1023D00086960E94E43290E0982F88272D81822BE8
:1023E00081159C4531F48FEF8D8303C0E12CF12CD6
:1023F00003C0EE24E394F12CC8018C0D9D1D460111
:1024000080FF1BC0E1E08E1A910865E0262E312C7A
:102410002C0E3D1E280C391CC3018C0D9D1D0E94E5
:10242000E432D1012C9130E0322F2227282B2115C4
:102430003C4519F48FEFF1018083F501EE0DFF1D8E
:102440002FEFCF018A199B098815990508F0BBCF9A
:10245000848190E0982F88273581832B81159C45B6
:1024600011F4248325833296ECCF003AA1E01A07B9
:1024700020F4F70164810E94F2320F5F1F4FFFEFDB
:10248000EF1AFF0AC801879697012A193B092C15F4
:102490003D0558F355C28091F5019091F601892BC5
:1024A00009F44EC2CE0101960E94A5322FEF31EE03
:1024B00084E0215030408040E1F700C000000E94DD
:1024C0008F1A3EC2EA818E2F90E08E30910508F07F
:1024D00037C2FC01EE59FF4F0C942E3388E0E2E145
:1024E000F1E0DE01919601900D928A95E1F7FE01EF
:1024F000319680E2DF011D928A95E9F785E08983B4
:1025000088E0B096DE011596EFC1198282E08A83D9
:102510001B821C8215C28C8190E0982F88272B810A
:10252000820F911D092E000CAA0BBB0B45E0880FF2
:10253000991FAA1FBB1F4A95D1F7AC01BD01405E90
:102540005F4F6F4F7F4F481759076A077B0708F4A3
:10255000F7C18115E2E09E07A105B10508F0F0C1C1
:102560004130F2E05F076105710520F040E052E084
:1025700060E070E0481B590BBC016E5F7E4FCE01DE
:1025800001960E94CB32DCC140E250E06FEF70E078
:10259000CE0101960E9488338091F50189830A83D8
:1025A0001B8283E08C838CE08D83ECC181E090E022
:1025B0009093FA018093F90182E390E09093950162
:1025C000809394010E94461C909393018093920102
:1025D000B7C1012BD9F1809196019091970123E029
:1025E000969587952A95E1F71091AF011295117094
:1025F000182380919201909193010E94D91A8536F7
:102600009105F0F01123E1F00E94461C9093930194
:1026100080939201809194019091950101979093FC
:10262000950180939401892B89F41092FA011092FC
:10263000F90181E090E09093F6018093F50106C0E6
:1026400082E390E090939501809394018091F5014D
:1026500089838091F9018A8380919401A1C01092AD
:10266000F6011092F5016CC10B811C8140E250E033
:102670006FEF70E0CE0101960E94883324E236E0CD
:10268000A4EBB6E080E090E0AC014E5F5F4F4132DA
:10269000510508F055C1F9016591749106171707A6
:1026A00048F4E1E0F0E0EC0FFD1FE80FF91F718343
:1026B0006083CA01245F3F4FA217B30729F740C1C7
:1026C0004B815C8124EB36E084E296E0FC0165916D
:1026D00074914617570729F00C9628173907B1F758
:1026E0002DC1009709F42AC1FC0136962591349139
:1026F0002115310509F422C14FE150E0BE016E5FA2
:102700007F4FF90109951BC12B813C8184EB96E039
:1027100004E216E0F801459154912417350731F091
:10272000045F1F4F80179107A9F708C10115110514
:1027300009F404C1F8013896259134912115310529
:1027400009F4FCC04CE150E0BE016B5F7F4FC80153
:10275000F9010995009709F0F2C0F8013A968591C0
:102760009491009711F0FC01099580E0E8C00E9467
:102770000F21E6C0EB818E2F90E08730910508F0A5
:10278000DFC0FC01E059FF4F0C942E33FE0131965F
:1027900080E2DF011D928A95E9F788E089838A83C8
:1027A0008B83CEC08C811AE07E01B1E2EB0EF11C6E
:1027B000F701212F11922A95E9F7B7010E94012212
:1027C0008983F701DE01129601900D921A95E1F7C7
:1027D000B7C01C818AE0FE013596DE01919601901A
:1027E0000D928A95E1F789A19AA10E9466319AA378
:1027F00089A38BA19CA10E9466319CA38BA38DA170
:102800009EA10E9466319EA38DA38FA198A50E94D0
:10281000663198A78FA3183070F43AE0139FB00187
:10282000112465517E4F4AE050E0CE0181960E940E
:10283000163380E001C08FEF89830E94FC2F80C097
:102840006C81CE0181962AE0DC011D922A95E9F780
:10285000683008F042C0BAE06B9FB0011124655C9B
:102860007D4F35C01C818AE0FE013596DE019196D0
:1028700001900D928A95E1F789A59AA50E9466318B
:102880009AA789A7183070F4EAE01E9FB0011124BE
:10289000655C7D4F4AE050E0CE0181960E94163380
:1028A00080E001C08FEF89830E949A2F49C06C811C
:1028B000CE0181962AE0DC011D922A95E9F7683065
:1028C00060F4BAE06B9FB001112465577D4F4AE078
:1028D00050E00E94D43280E001C08FEF89838AE00B
:1028E000FE01B196DE01129601900D928A95E1F7F4
:1028F00027C01C818AE0FE013596DE019196019089
:102900000D928A95E1F78BA19CA10E9466319CA350
:102910008BA3183070F4EAE01E9FB00111246557B4
:102920007D4F4AE050E0CE0181960E94163380E050
:1029300001C08FEF89830E94262F02C08FEF898309
:10294000CE0101960E94A53221CA09BD19BD09B464
:1029500000FEFDCF8091D8008F7D8093D8008091BC
:10296000E00082608093E0008091E00081FDFCCF78
:102970000E94062312CA86E290E00E94E4321B8283
:102980001C821D828E83DCCF8091CD0187FF11C018
:102990008091E80082FD05C08091F2048111F8CF9A
:1029A00011C08091E8008B770BC08091F2048823DE
:1029B00049F08091E80080FFF8CF8091E8008E77A1
:1029C0008093E8000895982F973068F59093E90078
:1029D000981739F07091EC002091ED005091F000C3
:1029E00003C0242F762F50E021FD02C09F5FECCF63
:1029F0003091EB003E7F3093EB003091ED003D7F56
:102A00003093ED003091EB0031603093EB00709328
:102A1000EC002093ED005093F0002091EE0027FD94
:102A2000E5CF80E008958F708093E90081E00895FC
:102A30002091D3013091D4012617370748F0611552
:102A4000710539F42091E8002E772093E80001C049
:102A5000B901FC0120E06115710579F18091F20462
:102A60008823F1F18530F1F18091E80083FD3CC0CD
:102A70008091E80082FD2EC08091E80080FFEBCFBE
:102A80002091F3008091F20090E0922B6115710586
:102A900051F08830910538F421912093F100615074
:102AA00071090196F3CF21E0089709F020E08091A9
:102AB000E8008E778093E800CECF2111CFCF0AC0F7
:102AC0008091F204882361F0853061F08091E80004
:102AD00083FD0AC08091E80082FFF2CF80E0089574
:102AE00082E0089583E0089581E0089508950895AF
:102AF0008091A90108958093A4017093A601609329
:102B0000A5018091F2048430F9F48093E9008FEFFD
:102B10009091E800815095FD06C095ED9A95F1F7EA
:102B200000008111F5CF8091E80085FF0DC040E0E5
:102B300050E063E070E084EA91E00E947B32809193
:102B4000E8008E778093E8000895BC0184E00E943D
:102B50007B150895BC0183E00E947B150895CF93F7
:102B6000DF9320910D01222339F02091A20127FF4C
:102B700003C060E224E002C068E021E02093E900A5
:102B80002FEF3091E800215035FD06C035ED3A9524
:102B9000F1F700002111F5CF2091E80025FF1DC0BD
:102BA000EC0180910D01811105C040E050E068E02A
:102BB00070E003C070E040E050E0CE010E947B3244
:102BC0008091E8008E778093E80080E2FE01AAEA17
:102BD000B1E001900D928A95E1F7DF91CF910895D0
:102BE000AAE2B0E0E6EFF5E10C944A33EDECF1E057
:102BF00085ED91E02091F10021938E179F07D1F789
:102C00008091CE01833009F463C030F4813071F0DB
:102C1000823009F49DC0B4C08A3009F489C08B3079
:102C200009F46EC0893009F0ABC020C08091CD019D
:102C3000813A09F0A5C08091E800877F8093E80081
:102C40008091D1019091D201892B21F460E28AEA2E
:102C500091E003C060E080E090E070E00E94181511
:102C60008091E8008B778093E8008AC08091CD0145
:102C7000813209F085C08091D1019091D2010097F5
:102C800019F0029709F07CC08091E800877F80935B
:102C9000E8008091E80082FD05C08091F204811176
:102CA000F8CF6EC02091F3008091F20090E0922B5B
:102CB000029731F48091F100813011F0863021F4D7
:102CC0008091F1008093A9018091E8008B7754C036
:102CD0008091CD01813A09F053C08091D10190914A
:102CE000D201892B09F04CC08091E800877F809346
:102CF000E8008091E80080FFFCCF80910D0137C093
:102D00008091CD018132E1F58091D1019091D20184
:102D1000892BB1F58091E800877F8093E8000E94BD
:102D2000C4148091CF0180930D010E94062328C016
:102D30008091CD01813221F58091E800877F8093D9
:102D4000E8000E94C4148091D0018093A80118C0AB
:102D50008091CD01813AA1F48091E800877F809332
:102D6000E8008091E80080FFFCCF8091A80180936B
:102D7000F1008091E8008E778093E8000E94C414EF
:102D80008091E80083FFEBC18091CD019091CE014D
:102D9000492F50E04A30510508F0E1C1FA01E958E5
:102DA000FF4F0C942E33803821F0823809F0D7C1C0
:102DB00008C08091CA019091CB01992389F082606B
:102DC0000FC08091D1018F70873008F0C8C1809307
:102DD000E9008091EB0085FB882780F91092E900DB
:102DE0009091E800977F9093E8008093F100109213
:102DF000F1007CC1282F2D7F09F0B1C1882319F083
:102E0000823061F0ACC18091CF01813009F0A7C15F
:102E1000933009F080E08093CB012EC08091CF01E8
:102E200081112AC08091D1018F702FEF280F263099
:102E300008F095C18093E9002091EB0020FF1CC0B1
:102E4000933021F48091EB00806214C09091EB00EC
:102E500090619093EB0021E030E0A90102C0440FA3
:102E6000551F8A95E2F74093EA001092EA0080919C
:102E7000EB0088608093EB001092E9008091E800FD
:102E8000877F8093E8000E94C41469C1811167C1E3
:102E90001091CF011F778091E3008078812B809380
:102EA000E3008091E800877F8093E8000E94C414CB
:102EB0008091E80080FFFCCF8091E30080688093E0
:102EC000E300111102C082E001C083E08093F204AC
:102ED00046C18058823008F042C12091CF01309124
:102EE000D0012C3D53E0350779F583E08A838AE2EF
:102EF00089834FB7F894DE01139620E03EE051E25B
:102F0000E32FF0E050935700E49120FF03C0E295D7
:102F1000EF703F5FEF708E2F90E0EA3010F0C796B1
:102F200001C0C0968D939D932F5F243149F74FBF09
:102F30008091E800877F8093E8006AE270E0CE012C
:102F400001960E941815C0C08091D1019091D201C4
:102F5000432F552743305105B1F068F441305105F6
:102F600009F40CC14230510509F0F9C08BE590E03D
:102F7000E1EDF3E057C04132510589F1423251058C
:102F800009F43CC0ECC0C901992781309105B9F022
:102F900070F082309105D9F0039709F0E0C0EEE3BC
:102FA000F4E0E4918E2F90E0EEE3F4E038C0E0E846
:102FB000F4E0E4918E2F90E0E0E8F4E030C0E6E742
:102FC000F4E0E4918E2F90E0E6E7F4E028C0ECE531
:102FD000F4E0E4918E2F90E0ECE5F4E020C0833043
:102FE000910508F0BCC0880F991FFC01EC5CFE4FF6
:102FF0000190F081E02D89E090E014C083309105CC
:1030000008F0ADC0FC01EE0FFF1FE25DFE4F019026
:10301000F081E02DDC01A55DBE4F8C9190E0009722
:1030200009F49DC02091E800277F2093E8002091BB
:10303000D3013091D4012817390708F4C90140E0C1
:10304000009789F12091F204222309F43DC0253034
:10305000D9F12091E80023FD37C02091E80022FD3E
:103060002FC02091E80020FFEBCF4091F30020918A
:10307000F20030E0342B009759F02830310540F44D
:1030800044914093F100319601972F5F3F4FF3CF6A
:1030900041E02830310509F040E02091E8002E772A
:1030A0002093E800CDCF4111CDCF0AC08091F2042A
:1030B000882351F0853041F08091E80083FD04C001
:1030C0008091E80082FFF2CF8091E8008B778093B7
:1030D000E80045C0803809F042C08091E800877F51
:1030E0008093E8008091CC018093F1008091E8000A
:1030F0008E77C7CE811133C08091CF019091D001DE
:103100009927029764F58091E800877F8093E80013
:103110001091CF011093CC010E94C414111106C06C
:103120008091E30087FD02C081E001C084E08093CC
:10313000F20442E061EC81E00E94E31442E261ECBF
:1031400084E00E94E31442E261EC82E00E94E31416
:1031500042E260EC83E00E94E3148091F2048091EB
:10316000E80083FF10C08091E800877F8093E8002B
:103170008091EB0080628093EB0005C082E190E0DB
:10318000ECE2F4E04FCFAA96E3E00C9466331F9292
:103190000F920FB60F9211242F933F934F935F938B
:1031A0006F937F938F939F93AF93BF93CF93DF934F
:1031B000EF93FF93C091E900CF708091EC00D82F7E
:1031C000D17080FDD0E81092E9008091F000877FF7
:1031D0008093F00078940E94F0151092E90080919D
:1031E000F00088608093F000CD2BCF70C093E90091
:1031F000FF91EF91DF91CF91BF91AF919F918F910F
:103200007F916F915F914F913F912F910F900FBEE2
:103210000F901F901895E8EDF0E080818E7F8083FD
:103220001092E2001092DA001092E100A0EEB0E0FD
:103230008C9181608C9380818F77808319BCA7EDFE
:10324000B0E08C918E7F8C9380818F7E80831092F2
:10325000A7010895A0E0B0E0E0E3F9E10C94453364
:10326000C8EDD0E088818F7E8883E7EDF0E0808133
:103270008160808384E082BF81E08093A7018881A0
:103280008E7F888302EE10E0F80110821092DA003F
:1032900081EEC82ED12CF601108288818F77888329
:1032A00088818068888388818F7D888319BC10928B
:1032B000F2041092CC011092CB011092CA0190EE50
:1032C000E92EF12CF70180818B7F808388818160DA
:1032D000888342E060E080E00E94E314F601808190
:1032E0008E7F8083F8018081816080838081886007
:1032F0008083F70180818E7F8083888180618883CD
:10330000CDB7DEB7E8E00C9461331F920F920FB691
:103310000F9211242F933F934F935F936F937F935B
:103320008F939F93AF93BF93EF93FF938091E100AF
:1033300082FF09C08091E20082FF05C08091E10018
:103340008B7F8093E1008091DA0080FF2AC080911A
:10335000D80080FF26C08091DA008E7F8093DA004B
:103360008091D90080FF18C080E189BD82E189BDCC
:1033700009B400FEFDCF81E08093F2048091A701A3
:1033800081110FC00E940B190E942A198091E2003E
:1033900084608093E20005C019BC1092F204109280
:1033A000A7018091E10080FF17C08091E20080FFBB
:1033B00013C08091E2008E7F8093E2008091E20052
:1033C00080618093E2008091D80080628093D80071
:1033D00019BC85E08093F2048091E10084FF30C045
:1033E0008091E20084FF2CC080E189BD82E189BD2B
:1033F00009B400FEFDCF8091D8008F7D8093D80066
:103400008091E1008F7E8093E1008091E2008F7EC9
:103410008093E2008091E20081608093E2008091DD
:10342000CC01882311F084E007C08091E30087FD80
:1034300002C081E001C083E08093F2048091F20435
:103440008091E10083FF27C08091E20083FF23C0C9
:103450008091E100877F8093E10082E08093F20415
:103460001092CC018091E1008E7F8093E1008091E9
:10347000E2008E7F8093E2008091E2008061809381
:10348000E20042E060E080E00E94E3148091F000FE
:1034900088608093F000FF91EF91BF91AF919F9171
:1034A0008F917F916F915F914F913F912F910F90ED
:1034B0000FBE0F901F9018952091E4003091E50009
:1034C00095E64091EC00842F817040FF23C08091ED
:1034D000E80080FD1DC08091F204882399F08530BA
:1034E00099F08091EB0085FD11C04091E40050916E
:1034F000E5002417350729F3915011F09A01E1CF27
:1035000084E0089582E0089583E0089581E00895BD
:1035100080E008954091E80042FFDDCF089581E00A
:103520008093E00080E28093D8001092C9008FE180
:103530009EE40197F1F700C0000087E090EBDC010A
:103540008093F4049093F504A093F604B093F704E9
:103550009CE088E10FB6F894A895809360000FBEB8
:1035600090936000FFCF78941F920F920FB60F9246
:1035700011248F939F93AF93BF9380919E0190915D
:103580009F01A091A001B091A1010196A11DB11DC3
:1035900080939E0190939F01A093A001B093A101FD
:1035A000BF91AF919F918F910F900FBE0F901F9081
:1035B00018959C014FB7F89480919E0190919F01BE
:1035C000A091A001B091A1014FBF821B930B089560
:1035D000A0E0B0E0EEEEFAE10C9443334430510544
:1035E00008F46CC04091A20141FBCC24C0F8D12C5E
:1035F000CC0CDD1C42FB882780F9C82FE0E0DE2FD1
:10360000CC0FDD1FCC0FDD1FCC2ADD2A40FBEE24C2
:10361000E0F8F12CEC28FD2843FBAA27A0F9B0E044
:1036200023E0AA0FBB1F2A95E1F7EA2AFB2A44FBF5
:10363000EE27E0F9F0E034E0EE0FFF1F3A95E1F7F6
:10364000EE29FF2945FB222720F930E055E0220F23
:10365000331F5A95E1F72E2B3F2B46FB882780F925
:1036600090E0E6E0880F991FEA95E1F7822B932B13
:1036700047FB442740F950E05695542F442757956F
:103680004795842B952B2091A301322F3170132F56
:1036900000E0082B192B26952170B22EBB0CA12C13
:1036A0000A291B29012E000C220B330BFB0100837E
:1036B00011832283338380E090E002C08FEF9FEF7D
:1036C000CDB7DEB7EAE00C945F3380911C02909195
:1036D0001D0290930F0180930E010895CF92DF9207
:1036E000EF92FF924430510508F46FC0FB01C08097
:1036F000D180E280F3800E9406238091A201C0FA6B
:1037000080F9B701A601769567955795479540FBD7
:1037100081F9B701A60122E07695679557954795FF
:103720002A95D1F740FB82F9B701A60133E07695DF
:103730006795579547953A95D1F740FB83F9B701BF
:10374000A601E4E07695679557954795EA95D1F7F8
:1037500040FB84F9B701A601F5E07695679557958A
:103760004795FA95D1F740FB85F9B701A601A6E088
:103770007695679557954795AA95D1F740FB86F9B9
:10378000B701A601B7E07695679557954795BA9525
:10379000D1F740FB87F98093A2018091A301D0FA71
:1037A00080F999E0F694E794D794C7949A95D1F765
:1037B000C0FA81F98093A3018091A2019091A301A5
:1037C0000E94C32980E090E002C08FEF9FEFFF903E
:1037D000EF90DF90CF9008959C01CA01F9013296D5
:1037E000459154918417950750F0CB01F901349617
:1037F000659174910E947F3380E090E008958FEF8F
:103800009FEF08950F931F93CF93DF930CE112E086
:10381000C7ECD1E0CE010E94E432F80161918F0142
:10382000681719F0CE010E94F2322196CB3EF1E0EA
:10383000DF0781F7DF91CF911F910F910895DA0192
:103840009C012E5F3F4FF90145915491F90125915B
:103850003491A217B30758F0FC01349685919491E6
:103860000E947F330E94021C80E090E008958FEF59
:103870009FEF08952FB7F89460919E0170919F017A
:103880008091A0019091A1012FBF08952FB7F894C6
:1038900080919E0190919F01A091A001B091A10102
:1038A0002FBF08951F920F920FB60F9211248F937E
:1038B0009F93AF93BF9380910B03811113C08091AD
:1038C0009E0190919F01A091A001B091A10141960C
:1038D000A11DB11D80939E0190939F01A093A00113
:1038E000B093A101BF91AF919F918F910F900FBEA7
:1038F0000F901F90189520910D012223C9F020915F
:10390000A20127FF15C0262F2695269526952E3134
:10391000C8F4FC01E20FF11D677081E090E001C086
:10392000880F6A95EAF780959281892382830895AA
:10393000FC0106962281621301C012823196E817BB
:10394000F907C1F7089520910D012223C1F02091BC
:10395000A20127FF14C0262F2695269526952E31E5
:1039600030F5FC01E20FF11D677081E090E001C0CD
:10397000880F6A95EAF79281892B82830895FC016A
:1039800032962FEF30E04191641789F02F3F19F400
:10399000411101C0232F3F5F3630A9F72F3F39F087
:1039A000FC01E20FF11D27FDFA9562830895089549
:1039B0002091090330910A032817390771F0909379
:1039C0000A0380930903E0910703F09108033097FD
:1039D00021F00084F185E02D0995089520910503DB
:1039E000309106032817390771F0909306038093EE
:1039F0000503E0910703F0910803309721F006805A
:103A0000F781E02D09950895E0910703F0910803EF
:103A1000309729F00190F081E02D0995089580E01C
:103A20000895CF93DF93EC01EA85FB85309719F079
:103A30006C857D8509958B810E946C2A8C810E9402
:103A4000732A0E94EA2A86E0FE0111928A95E9F71C
:103A5000DF91CF910895CF93DF93EC018D8181FDAC
:103A600015C082608D83909102038B81892B809396
:103A700002038C810E947A2A0E94EA2AE885F9854D
:103A8000309721F06C857D85CE0109951092040355
:103A9000109203038D8180FD03C0CE010E94111D91
:103AA000DF91CF910895A0E0B0E0E9E5FDE10C944D
:103AB00043337C015B01C42FD22FFC018281882318
:103AC000B1F0409301030E94461C90930003809341
:103AD000FF0280E28C0F883008F052C0C77081E08E
:103AE00001C0880FCA95EAF70E94342349C080912B
:103AF0000103481335C08091FF02909100030E949A
:103B0000D91A6C01B701C5010E94DE2FC816D9066B
:103B100038F510E21D0FCD17B9F080E28C0F883018
:103B200040F4C77081E001C0880FCA95EAF70E948F
:103B30002D23183010F581E09D2F977001C0880F5C
:103B40009A95EAF70E943423802F0E944A24183065
:103B5000B8F4D77081E001C0880FDA95EAF70AC09F
:103B600080E28C0F883060F4C77081E001C0880F5C
:103B7000CA95EAF70E942D2303C0802F0E944A2491
:103B8000CDB7DEB7EAE00C945F33CF93DF93EC015F
:103B90004091F4025091F5026091F6027091F702A3
:103BA0002FB7F89480919E0190919F01A091A00160
:103BB000B091A1012FBF841B950BA60BB70B843FBF
:103BC0009140A105B105A8F48091F4029091F5020D
:103BD000A091F602B091F7028093F0029093F10267
:103BE000A093F202B093F30284EF91E0A0E0B0E082
:103BF0000EC00E943A1C6093F0027093F102809311
:103C0000F2029093F30282E390E0A0E0B0E08093B0
:103C1000EC029093ED02A093EE02B093EF02D093EA
:103C2000FC02C093FB02DF91CF910895FF920F93A6
:103C30001F93CF93DF930091FD021091FE020115B7
:103C4000110509F45CC01092FC021092FB02109264
:103C5000F8021092F902D80116966D917C9117978F
:103C60009B013A9521153F4108F4707EC62FD1E0A3
:103C7000611101C0D0E0F82ED8011996ED91FC91A8
:103C80001A97309739F01B966D917C911C9780E0C4
:103C90000995D823DD2379F08CEF8C0F813A30F42D
:103CA0006C2F85ED91E00E947B1C05C00E94EA2AE2
:103CB0008C2F0E943B23E091FD02F091FE02408197
:103CC0005181FF2071F0808584FD0BC08091FA0244
:103CD000882339F091E09A0121503109203B3D457C
:103CE00008F090E090FF03C0CA010E94C51D0E9429
:103CF000EA2A1092FE021092FD021092FA02C80106
:103D0000CDB7DEB7E5E00C946433FC0184818623F3
:103D1000C1F492819923B9F08085692383FF04C09F
:103D200081E0611111C00DC0892F8F7092959F7035
:103D3000982B862F8F7062956F70682B81E0961795
:103D400019F080E0089581E00895452B41F06F3F20
:103D500041F491E08F3F09F090E0892F03C081E0AA
:103D600001C080E081700895BC014091E80280911B
:103D7000E902942F981729F1292F30E0F901EE0F6D
:103D8000FF1FE052FD4F0190F081E02DE617F7078D
:103D900099F487E0869FF001879FF00D1124E85584
:103DA000FD4F81E0848394130CC02F5F3F4F23703D
:103DB00033272093E80208952F5F3F4F922F93708F
:103DC000D9CF0895EF92FF920F931F93CF93DF9374
:103DD00080914702882309F440C0009146028CE09C
:103DE000F82E809147020817A0F5EE24E394E00E28
:103DF000E092460210E0F09EE001F19ED00D112409
:103E0000C85BDD4F4B815C81698188810E94A51E62
:103E100081111DC08E819F81892B21F48885998510
:103E2000019651F4288139814A815B816C817D81C1
:103E30008E819F810E94B826F09EF001F19EF00DC8
:103E40001124E85BFD4F14821382109202030E2DA1
:103E5000C8CF1092470210924602CDB7DEB7E6E017
:103E60000C9463331092450210924402E8EAF2E0A7
:103E70008581811102C014821682379682E0E03E6D
:103E8000F807B1F708951092EB021092EA0210922F
:103E900011018091E9028093E8020E94321F0E9482
:103EA000E21E0895A0E0B0E0E8E5FFE10C943C33A9
:103EB000C091E80297E0892E01E010E02CE0322E5C
:103EC0003EEF932E442443948091E902C81709F4ED
:103ED00079C0D0E0FE01EE0FFF1FE052FD4F808160
:103EE0009181889ED001899EB00D1124A855BD4FA7
:103EF00014962C911497211162C050904702E8E467
:103F0000F2E020E030E0712C5D01251508F055C08D
:103F1000E284F384D501CD90DC906FEF7FEF612CCC
:103F2000462D50E0DA01AA0FBB1FAC0DBD1D0D9050
:103F3000BC91A02D109731F0EA16FB0609F4BA01E6
:103F40006394EECF6F3FBFEF7B0799F1D80102C0BA
:103F5000AA0FBB1F6A95E2F77A2AB801062C02C0A5
:103F6000660F771F0A94E2F7AB0141505109672DA4
:103F700070E046175707D9F4329EF001339EF00DDA
:103F80001124E85BFD4F889ED001899EB00D11245D
:103F9000A855BD4F12962D913C91139737832683D8
:103FA000908291829187808715964C9206C01482E8
:103FB00013822F5F3F4F3C96A8CF0E94B41E2196DC
:103FC000C37082CF0E94E21E0E94321FCDB7DEB7BF
:103FD000E1E10C94583380911001877F80931001A8
:103FE00082E00E946C2A8091100184FF06C08F7EBF
:103FF0008093100182E00E947A2A8091100185FF4F
:1040000006C08F7D8093100180E20E947A2A0E9470
:10401000EA2A0895662329F0209102032260209362
:1040200002039C013056211540E2340720F0305E37
:104030002115304108F499270E94B72E0895009762
:1040400041F0EFE9FFE03197F1F700C00000019780
:10405000F6CF0895A0E0B0E0E0E3F0E20C94433343
:104060005C017B01C42E89018091100182FF8DC00B
:10407000C0914202D0914302CA15DB0521F0A11480
:10408000B10409F082C0809110018B7F80931001F0
:1040900081FD11C08091400290914102A701481B0F
:1040A000590B81E020910E0130910F014217530707
:1040B00018F480E001C081E08170D82E8091100159
:1040C000D0FA81F980931001FE01FF2784E0F69574
:1040D000E7958A95E1F79E012F703327EE0FFF1FBA
:1040E000E450FE4F81E090E002C0880F991F2A95AE
:1040F000E2F7DD2029F020813181822B932B06C04D
:1041000080959095208131818223932391838083B0
:104110008091FB0181FF08C0809110018061809334
:10412000100182E00E94732A8091FB0185FF08C084
:104130008091100180628093100180E20E94732AB6
:10414000A8016D2DCE010E940A20CC2031F0809173
:10415000370285FF02C086FF36C080913A029091F7
:104160003B020E941F2080914202909143029C01D9
:104170003056211540E2340720F0305E21153041E1
:1041800008F499270E949D2E18C095013327C50178
:104190009056811540E2940720F0905E8115904181
:1041A00010F4C90101C0C5010E949D2E80914202F8
:1041B00090914302A816B90611F40E94EB1FF092E9
:1041C0004102E0924002CDB7DEB7EAE00C945F33E3
:1041D0000F931F93CF93DF930CE112E0C7ECD1E074
:1041E000CE010E94E432F80181938F012196CB3EEB
:1041F000F1E0DF07A9F7C0E0D0E0FE01E25DF94F92
:1042000085919491009711F0FC0109952C96C03985
:10421000D10599F7DF91CF911F910F910895ECE1AE
:10422000F2E0128E138E8FEA90E09183808385E016
:10423000848F28E833E13383228322E330E0378B15
:10424000268B28EC30E0318F208F158E178E168E3E
:1042500020E530E031A320A382A30E94021C0E942B
:1042600006231092A3011092A201E3EAF1E08081FB
:10427000846080838091A2019091A3010E94C32950
:104280000E94E8200895CF93DF93CBEDD2E060E069
:10429000CE010E94F2322196C11584E0D807B9F709
:1042A000DF91CF9108952091F9013091FA01232BEC
:1042B000A1F4703F39F4603F81F48091F70190914F
:1042C000F8010895843048F4743038F46D3028F4DF
:1042D000462F672F0E94F82E089580E090E0089501
:1042E000AEE1B0E0E6E7F1E20C943F33A090F501D7
:1042F000B090F60181E090E09093F6018093F50193
:10430000612CC12CD12C712CE12CF12C00E010E09F
:1043100047018C0C9D1CF801EE0FFF1FE80DF91DE5
:10432000EC57FB4F25913491402F672D862D0E942D
:10433000D12E0F5F1F4F0D30110569F78AE1E80E8E
:10434000F11C7394E4E07E12E1CFF8E6CF0ED11CAD
:10435000639484E06812D7CF0E940F211A821982D9
:104360001C821B821E821D8218861F8288EC90E0B0
:104370009A8789870BEE11E04AE050E0B801CE0140
:1043800001960E941633065F1F4F0B33E2E01E07B3
:1043900099F77E01FBE0EF0EF11C8AE0F701119224
:1043A0008A95E9F74AE050E0B801C7010E94163348
:1043B000065F1F4F0B38F2E01F07A1F77E0185E172
:1043C000E80EF11C8AE0F70111928A95E9F78FEF68
:1043D0009FEF9A8F898F87E08E8F4AE050E0B80177
:1043E000C7010E941633065F1F4F0B3DF2E01F0707
:1043F000A1F7B092F601A092F5016E96EEE00C9452
:104400005B33883080F49B01982F8AE0989FB0013D
:10441000112465517E4F4AE050E0C9010E94D43218
:1044200080E090E008958FEF9FEF089580E090E0A6
:104430000E94EE1C80E090E00E94D81C10920203C3
:104440000E94EA2A0895CF92DF92FF920F931F9362
:10445000CF93DF936C010091F30480919103082BBB
:10446000C7E0D0E010E0C8010C2E02C095958795FA
:104470000A94E2F780FD04C02197A8F7F12C09C047
:10448000FC2EB6018C2F0E9453210E943C280197DC
:1044900099F38F2DDF91CF911F910F91FF90DF90B6
:1044A000CF900895CF93DF93EC010E942322BE01A9
:1044B0000E9453210E943C28DF91CF910895292F1B
:1044C000943078F58D3068F590E03DE0239F800DC5
:1044D000911D1124682F677023E0969587952A9582
:1044E000E1F7FC01EE0FFF1FE80FF91FE45FFC4F3F
:1044F00040E050E080E0219130E0062E02C0369589
:1045000027950A94E2F721703327042E01C0220F69
:104510000A94EAF7822B4F5F5F4F4330510559F7FA
:10452000089580E00895292F943088F58D3078F52E
:1045300090E03DE0239F800D911D1124282F2770CE
:1045400051E001C0550F2A95EAF723E0969587952B
:104550002A95E1F7FC01EE0FFF1FE80FF91FE45F5A
:10456000FC4F20E030E070E04081CB01022E02C021
:10457000969587950A94E2F7817081958427852323
:10458000842781932F5F3F4F2330310569F70895CA
:104590008093F3040E941622089521E030E001C0C8
:1045A000220F8A95EAF720958091F30482230E94D6
:1045B000C822089521E030E001C0220F8A95EAF771
:1045C0008091F304822B0E94C82208958093910366
:1045D0000E941622089592959F70963079F010F4FB
:1045E000925001C09A50923068F4803F69F018F4FC
:1045F000883E40F409C0843F29F406C0883E20F07C
:10460000813F11F080E0089581E008951092FB0150
:1046100080910D01882331F08091A20187FF02C0B3
:104620008EE101C086E0E7EDF1E0DF011D928A95A1
:10463000E9F70E9416220895882321F00E946C2A2F
:104640000E94EA2A0895882339F090910203892B69
:10465000809302030E94EA2A0895882321F00E9491
:10466000732A0E94EA2A0895882321F00E947A2A58
:104670000E94EA2A0895882309F455C0682F8238D9
:1046800069F40E94041D81FF4EC069E385ED91E04D
:104690000E94A31C0E94EA2A69E30EC0833899F4A1
:1046A0000E94041D80FF3FC063E585ED91E00E94FC
:1046B000A31C0E94EA2A63E585ED91E00E947B1C21
:1046C0000E94EA2A0895843869F40E94041D82FF3A
:1046D0002AC067E485ED91E00E94A31C0E94EA2AAB
:1046E00067E4EACF8CEF860F813A30F380E2860FE1
:1046F000883048F4677081E001C0880F6A95EAF756
:104700000E94732ADDCF8BE5860F833028F480E08A
:1047100090E00E94EE1C0895685A673120F480E012
:1047200090E00E94D81C0895CF93882309F4B0C06C
:10473000C82F8238B1F40E94041D81FDA9C069E32D
:1047400085ED91E00E94A31C0E94EA2A2FEF87EEDC
:1047500093E0215080409040E1F700C0000069E301
:1047600017C08338E1F40E94041D80FD91C063E509
:1047700085ED91E00E94A31C0E94EA2A2FEF81EEB2
:1047800094E0215080409040E1F700C0000063E5D4
:1047900085ED91E00E947B1C0E94EA2A79C0843852
:1047A000B1F40E94041D82FD73C067E485ED91E0C1
:1047B0000E94A31C0E94EA2A2FEF81EE94E0215070
:1047C00080409040E1F700C0000067E4E1CF8CEF4B
:1047D0008C0F813AB8F580910D018823E1F080912A
:1047E000A20187FF18C0EC2FE695E695E695F0E06C
:1047F000EB52FE4F8281282F30E04C2F477081E032
:1048000090E002C0880F991F4A95E2F78223932314
:10481000892B59F411C0E7EDF1E08191C81729F017
:1048200021E0ED3DF207C9F707C06C2F85ED91E05F
:104830000E947B1C0E94EA2A6C2F85ED91E00E9469
:10484000A31CAACF80E28C0F883048F4C77081E0A7
:1048500001C0880FCA95EAF70E947A2A9DCFEBE53E
:10486000EC0FE33040F4F0E0E65CFE4F808190E036
:104870000E94EE1C0DC0C85AC73150F4EC2FF0E076
:10488000EE0FFF1FE35CFE4F808191810E94D81CD8
:10489000CF9108951F93CF93DF93182F893329F475
:1048A000C0913C02D0913D0204C0C0913A02D09127
:1048B0003B02812F0E949423209741F08FE99FE0D3
:1048C0000197F1F700C000002197F6CF812F0E94D9
:1048D0003B23DF91CF911F910895CF93DF93EC019C
:1048E0004B815C81698188810E94A51E81110EC067
:1048F0008E819F81009719F00E943C2804C0888116
:1049000099810E9452220E94EB2201C080E0DF9137
:10491000CF910895A5E1B0E0E0E9F4E20C943D33D5
:104920008C0185E0F801DE01519601900D928A9587
:10493000E1F7D8015C9011966C9011971296EC906B
:1049400012971396CD90DC90149760E081E293E08B
:104950000E940C2C81E2A82E83E0B82E80902403C4
:1049600090902503A40160912203809121030E946D
:10497000A51EF82E8111DBC140902303F601E81932
:10498000F9094F0160E0442009F45FC1C5010E94AC
:104990000C2CB5010E94DE2F709026038816990614
:1049A00008F00BC14091240350912503B0902103DE
:1049B000A0902203872D807F6A2D09F08EC08B2D59
:1049C0000E94A51E811124C0D80111968C911197C7
:1049D0008A111EC08C918B111BC02091270330912E
:1049E000280316968D919C9117972817390781F403
:1049F000E1100EC0872D8F7080618093260381E2C5
:104A000093E00E94EC0380912603F8018583ABC1FB
:104A1000A601662D852D0E94A51ED82E811103C0EA
:104A200081E08E2502C080E090E080FF17C04E2D0F
:104A3000662D852D0E94592B882381F080913902A3
:104A400080FF0CC081E293E00E94EC03E1E2F3E01E
:104A500088E0DF011D928A95E9F785C1D11003C076
:104A600081E08E2502C080E090E0B82FB170CB2E9F
:104A700080FF2AC04E2D662D852D0E94592BD82EE1
:104A8000811122C0598A6A8A89899A890E94522290
:104A9000292F22952F70223018F0243078F405C089
:104AA0009F7049F0811107C00DC09F7021F0F8017F
:104AB0009581907F39F0805E883020F0C8010E9497
:104AC000EC03DC2CFD2C4FC1EE2009F44BC180918E
:104AD000260381608093260346C18B2D0E94A51E6C
:104AE000811124C0D80111968C9111978A111EC092
:104AF0008C918B111BC020912703309128031696AF
:104B00008D919C9117972817390781F4E1100EC0F9
:104B100015967C92C8010E94EC0388E0F801A1E29E
:104B2000B3E001900D928A95E1F76FC0C8010E9431
:104B30006D248823E1F1EE20D1F120912603822F0C
:104B400082958F7090E00297A4F08091210390915C
:104B500022039A8789871B86DD86CC862E878091E3
:104B6000270390912803988B8F87CE0109960E9486
:104B7000EC0388E0F801A1E2B3E001900D928A9580
:104B8000E1F70E94832B16C0F0902103909022033E
:104B90004091240350912503692D8F2D0E94A51E5D
:104BA000882399F0C8010E946D24811130C0C8018A
:104BB0000E94EC03FF24F394D6C0872D807F21F759
:104BC00081E293E00E94EC03ACC0D80111968C9175
:104BD00011978911E7CF8C918F11E4CF2091270392
:104BE0003091280316968D919C91179728173907B5
:104BF000C9F6E110D7CF15967C92C8010E94EC034C
:104C000088E0F50111928A95E9F7F42CACC0EE200A
:104C100071F220912603822F82958F7090E0029787
:104C20000CF4A7CF80912103909122039A8389836A
:104C30001B82DD82CC822E838091270390912803F2
:104C400098878F83CE01019692CF81E293E00E94F4
:104C50000C2C61E273E00E94DE2F8816990608F0A2
:104C600060C0FE2CEE2009F4A2CFE0902103D0908A
:104C7000220340912403509125036D2D8E2D0E9417
:104C8000A51E811140C0D80111968C9111978D11EC
:104C90003AC08C918E1137C02091270330912803A0
:104CA00016968D919C9117972817390761F5809179
:104CB000390282FD1FC08091260380FD1BC08295B2
:104CC0008F70482F50E041155105A1F02091260327
:104CD00015962C9315974F30510549F08F5F982FFB
:104CE0009295907F822F8F70892B15968C93C80197
:104CF0000E94EC0388E0F801A1E2B3E001900D927C
:104D00008A95E1F730C0C8010E946D24811131CF2E
:104D100080912603816080932603C8010E94EC03E2
:104D200022C088E0F50111928A95E9F71CC0EE20B7
:104D300009F43DCFC8010E946D24F82E882309F4A0
:104D400036CF88E0F801A1E2B3E001900D928A9598
:104D5000E1F780912103909122030E9452220E9448
:104D6000832B01C0F12C8F2D6596E0E10C94593313
:104D7000A0E1B0E0EEEBF6E20C94473329873A87E6
:104D80004B875C876D877E878F87988BCE010996CE
:104D90000E948A2481114AC088E0FE013996DE0112
:104DA000119601900D928A95E1F7E984FA840C85B9
:104DB0001D85A8016F2D8E2D0E94A51E811136C064
:104DC000A0912903B0E0CD01019687709927209129
:104DD0006A0330E08217930781F1E982FA821D832A
:104DE0000C8393E0AA0FBB1F9A95E1F7A65DBC4F19
:104DF00098E0FE01319601900D929A95E1F780932B
:104E000029030E94792B12C028E0829FC00111243F
:104E1000865D9C4F0E948A248823E1F080916A037A
:104E200090E001968770992780936A0380916A03C6
:104E3000909129038913E8CF0DC00E940623109298
:104E4000290310926A03E1E2F3E088E0DF011D929A
:104E50008A95E9F76096E6E00C94633380E0089564
:104E60009091A20192FF0DC0282F2871283019F4CB
:104E7000877F846006C0282F2471243011F48B7F33
:104E8000886093FF0DC0282F2871283119F4877E80
:104E9000846106C0282F2471243111F48B7E88612F
:104EA0002091A30120FF0DC0382F3871383019F43C
:104EB000877F816006C0382F3171313011F48E7FC9
:104EC000886021FF0DC0282F2871283119F4877EB2
:104ED000816106C0282F2171213111F48E7E8861F5
:104EE00094FD877E0895F894E82FE295EF70F0E046
:104EF00031A1282F2F7081E090E001C0880F2A9502
:104F0000EAF7982F9095932391A392A1892B82A3DE
:104F100078940895A8E0B0E0E0E9F7E20C943F331C
:104F2000AE014F5F5F4F7A0188E0FA0111928A95D6
:104F3000E9F70AE111E06A019EE1692E91E0792E1C
:104F400088248394912CF80180818F3F09F447C015
:104F5000F894E82FE295EF70F0E021A18F70A401A2
:104F600002C0440F551F8A95E2F7CA01922F982B71
:104F700091A392A18095892382A3789400C0EEE149
:104F8000F1E021E030E0A12CB12C41914F3F89F0BC
:104F9000A42FA295AF70B0E090968C9190E04F70E6
:104FA00002C0959587954A95E2F780FD02C0C90138
:104FB00002C080E090E0A82AB92A220F331F51E0F6
:104FC000EB32F50711F7F80180818F3F11F00E9455
:104FD0007327F0EAFA95F1F7F601B182A0820F5F2C
:104FE0001F4FF2E0CF0ED11C6016710609F0ABCF57
:104FF00048E050E0B70184E791E00E947233892BCA
:1050000089F088E0F701A4E7B1E001900D928A955C
:10501000E1F781E0809394030E94461C90939303F0
:105020008093920380919403811102C080E020C09C
:1050300080919203909193030E94D91A0597B0F33F
:1050400048E050E064E771E086E991E00E94723345
:10505000892B59F088E0E4E7F1E0A6E9B1E001909E
:105060000D928A95E1F781E001C080E010929403EF
:105070002896EEE00C945B33CF93DF938238910552
:1050800069F1B0F48133910509F477C048F48932AD
:10509000910509F469C08A32910509F473C092C080
:1050A0008533910509F45BC089339105B9F08AC055
:1050B000833E910591F138F4803E9105D1F0823E16
:1050C000910531F17FC0863E9105D9F1873E91056A
:1050D000E9F1843E910509F075C028C02091A20134
:1050E00020FD5BC021FD59C02091A30123FD61C0BB
:1050F00069C08091A20180FD4AC08091A30180FF18
:105100004CC08091A20184FD39C183EE90E038C18A
:105110008091A20182FF3EC0F4CF8091A20182FD66
:1051200039C08091A30180FD38C0EBCF8091A301ED
:1051300081FF39C08091A20184FD20C187EE90E0FB
:105140001FC18091A20183FF2BC0F4CF8091A201E7
:1051500083FD26C08091A30181FD25C0EBCF809106
:10516000A20185FD26C022C08091A20185FD1EC03E
:105170008091A30183FF1DC00AC08091A20186FD1A
:105180001BC01DC08091A20186FD19C015C089E316
:1051900090E0F6C082EE90E0F3C080EE90E0F0C0C8
:1051A00086EE90E0EDC084EE90E0EAC085E390E00A
:1051B000E7C089E290E0E4C08AE290E0E1C081E3E8
:1051C00090E0DEC0811572E5970708F061C0811597
:1051D00021E5920728F0982F8827816F906AD0C028
:1051E000883E910568F5803E910508F0C9C0883A6F
:1051F0009105B8F4853A910548F0855AE82FF0E01A
:10520000E65CFE4F808190E09064BAC081309105E9
:1052100009F4B1C008F4B2C08430910508F4AEC0FE
:10522000AFC08F3B910508F0A9C0885AE82FF0E085
:10523000EE0FFF1FE35CFE4F808191819464A0C05C
:10524000811530E59307B0F0482F4F70469546958D
:1052500020E2429FA0011124837021E030E0B901D7
:1052600002C0660F771F8A95E2F7CB019D68842BF9
:10527000952B86C0811540E4940718F09F70906AC2
:105280007FC09C013A9521153F4108F479C076C052
:10529000EC01811576E59707E8F5C11585E5D80796
:1052A00048F08C2F0E9430278F7190E0982F88272C
:1052B000906266C0C11524E5D20728F09C2F88278C
:1052C000846F906A5DC0AE01437055272C2F2695E0
:1052D0002695C115D34578F481E090E002C0880F8F
:1052E000991F4A95E2F770E2279F90011124822BC3
:1052F000932B9C6845C081E090E002C0880F991F05
:105300004A95E2F740E2249F90011124822B932BCF
:105310009A6836C081154AE59407F0F4811569E56D
:10532000960790F08C2F8F700E94302794E0D695CE
:10533000C7959A95E1F7CF70D0E0DC2FCC27D069E4
:10534000BE01682BCB011CC081159845B8F09C2F7D
:105350008827806F906A14C090568115904270F42F
:105360008D2F8F710E943027282F2F71CE01992702
:105370009062922B05C081E090E002C080E090E056
:10538000DF91CF910895CF93C92F682F84E090E0EB
:105390000E94F2326C2F82E290E00E94F232CF91B2
:1053A0000895CF9384E090E00E94E432C82F82E217
:1053B00090E00E94E4322C2F30E0A901582BCA0162
:1053C000CF91089568EE7EEF80E090E00E94103368
:1053D00060E082E090E00E94F23260E083E090E0E2
:1053E0000E94F2321092910360E084E090E00E940B
:1053F000F23264E082E290E00E94F23260E085E006
:1054000090E00E94F23260E086E090E00E94F2328A
:105410006FEF87E090E00E94F23240E050E0BA0186
:1054200088E090E00E94043360E08DE090E00E940C
:10543000F23240E050E0BA0188E190E00E9404338B
:1054400060E087E190E00E94F23240E050E0BA0173
:105450008CE190E00E94043360E070E080E290E034
:105460000E94103340E050E0BA0188E190E00E94D1
:10547000043380E00E947B310E949A3140E050E08A
:10548000BA018FE090E00E94043340E050E0BA019E
:1054900083E190E00E940433089580919003882373
:1054A00031F01092900310928F0310928E030895A2
:1054B000CF939091A30192FF0DC090919003981704
:1054C00049F0C82F0E94461C90938F0380938E034F
:1054D000C0939003CF910895809590910203892302
:1054E00080930203089580959091FB018923809316
:1054F000FB0108959091FB01892B8093FB01089596
:1055000010926D0310926C0310926B03089520911A
:105510006D038095822380936D03982F977099F483
:1055200030E0482F082E000C550B2417350759F092
:105530009091A30192FF07C08595859585950E945E
:10554000CD220E94802A08959091A30192FB2227E8
:1055500020F9281769F080FB92F99093A3018091BC
:10556000A2019091A3010E94C32982E00E94872A90
:1055700008959091A30192FF10C098E0899F900137
:105580001124262B20936D030E94DA220E94461CD0
:1055900090936C0380936B0308950E94DA22089520
:1055A00080911E0290911F02892B89F00E94461C57
:1055B00020918E0330918F03AC01421B530B81E08D
:1055C00020911E0230911F024217530708F480E019
:1055D00081700895CF939091FB0180910203892BF4
:1055E0008093D50180919003882351F180911E0210
:1055F00090911F02892B29F00E94D02A81110E94CC
:105600004D2A9091D50180919003892B8093D501EB
:1056100080910D01882331F08091A20187FF02C0A3
:105620008EE101C086E0E7EDF1E090E0815028F0E6
:1056300021912223D9F39F5FF9CF91110E944D2A26
:10564000C091F802C0958091D501C8238091F902DC
:10565000C82BC093D50140E250E06EE673E085EDC3
:1056600091E00E947233892B11F180E2E5EDF1E0C7
:10567000AEE6B3E001900D928A95E1F7E091070361
:10568000F0910803309799F080910D01882349F03B
:105690008091A20187FF05C0C093D60186E0809368
:1056A000D5010280F381E02D85ED91E00995CF9140
:1056B000089520916A03909129032917B1F030E0F1
:1056C000F90153E0EE0FFF1F5A95E1F7E65DFC4F3D
:1056D0005181561306C05081581303C05281541390
:1056E00006C02F5F3F4F2770E8CF80E0089581E02C
:1056F000089580916A0390912903891719F08F5FAB
:105700008770FBCF0895A0E0B0E0E9E8FBE20C94DD
:1057100045338091260382958F7009F055C08091A2
:105720002303882309F450C0C0916A0380912903A0
:10573000C81709F449C0F0902103E0902203C090FB
:105740002403D0902503A6016E2D8F2D0E94A51E47
:10575000D0E0811136C08E0183E0000F111F8A95C1
:10576000E1F7F801E65DFC4F81818E112AC080814E
:105770008F1127C08281811124C0E380F480EC184E
:10578000FD0860E081E293E00E940C2C61E273E08E
:105790000E94DE2FE816F906A0F4809126038F7090
:1057A000806180932603F801E15DFC4F80818F705A
:1057B0008061808381E293E00E94EC030E94792B58
:1057C00003C02196C770B2CFCDB7DEB7E8E00C9426
:1057D0006133A5E0B0E0EFEEFBE20C944A3349837D
:1057E0005A8389819A81662359F0222349F00E94C5
:1057F0002322182F682F89819A810E94932203C047
:105800000E945F22182F69817A81812F0E94532183
:105810002596E3E00C946633FC018681978100971E
:1058200041F4262F408151816281738184810E94DD
:10583000E92B0895AAE1B0E0E0E2FCE20C943B33EE
:10584000942F498B252F5A8B6B8B7C8B8D8B4C899E
:105850005D89622F892F0E94A51E811109C0809148
:10586000720190917301019690937301809372017C
:105870008B898111109202038E01075F1F4F88E010
:10588000F80111928A95E9F785E0FE017196D80139
:1058900001900D928A95E1F78091A30182FF28C0C3
:1058A00080911E0290911F02892B11F10E94461CCB
:1058B00020916B0330916C03821B930B20911E028D
:1058C00030911F028217930740F080916D0382FB95
:1058D000992790F981E0892701C080E080FF03C00B
:1058E00082E00E94872A0E94D02A81110E944D2ABC
:1058F0004C855D856A8589850E94A51E8111CCC174
:1059000061E0C8010E940C2C6C01873FFCE59F07F9
:1059100039F48B858823A9F081E080931101BCC103
:10592000883F9C4531F48B85882359F00E94431FA2
:10593000B3C189EFC8168CE5D80619F48B8581119F
:1059400011C008EA12E0512CA12CB12C66246394FA
:10595000712C33243394FE013196FF8BEE8BF7E0EC
:105960002F2E4DC0809111018823B1F2DFCFC616D2
:10597000D70609F097019F5F7901292F30E0F901DF
:10598000EE0FFF1FE40FF51F608171816115710536
:1059900071F7FFEFEF16FF0609F432C1F8016481D9
:1059A000611135C020911101822F81704B84F80163
:1059B00035812681442009F4CAC0882309F4C7C070
:1059C0008090320290903302332321F1930102C080
:1059D000220F331F9A95E2F721503109F801868191
:1059E00090E02817390751F15428FFEFAF1ABF0A8A
:1059F000095F1F4F28E0A216B10409F403C1F801A2
:105A000040815181EE24EA94FE2C90E0B6CF20E054
:105A100030E0CACFA3010E2C01C0440F0A94EAF76C
:105A2000242B268320914402309145022815390504
:105A300068F69092450280924402C8CF8091EA02B3
:105A40009091EB02009731F00E94D91A88169906BE
:105A500008F41FC18091E802F091E902F88FE0E0BC
:105A6000F0E0288D821709F460C0282F30E0F9019A
:105A7000EE0FFF1FE052FD4F80809180289CF001C7
:105A8000299CF00D1124E855FD4FF080E18050E095
:105A900090E040E0EF2DFE2DE40FF11DE40FF11D2D
:105AA000A081B1811097D1F0F801F081F98FF80150
:105AB000F181FA8F90E0E98DFA8DE90FF11DE90F80
:105AC000F11D608171816115710531F0A617B7076D
:105AD00009F451E09F5FEFCF4F5FDCCF5523F9F022
